:020000040800F2
:100000007806002081010008A91600082D160008B6
:1000100000000000000000000000000000000000E0
:10002000000000000000000000000000AF16000803
:100030000000000000000000AD16000801170008D5
:100040009301000893010008930100089301000840
:100050009301000893010008930100089301000830
:100060009301000893010008930100089301000820
:100070009301000893010008930100089301000810
:10008000930100089301000893010008000000009C
:1000900093010008930100089301000893010008F0
:1000A00093010008930100089301000893010008E0
:1000B00093010008930100089301000893010008D0
:1000C00000F002F800F04CF812A030C808382418EC
:1000D0002D18AC4201D100F043F80FCCA246AB463C
:1000E0000CA730CF2D1B083F3F197C427F1E544484
:1000F0002D090426F441641EAC4201D300F030F80F
:100100000126334200D0FB1A3343984754465D46DC
:10011000DFE700006417000084170000103A02D3E4
:1001200078C878C1FAD8520701D330C830C101D598
:1001300004680C6070470000704700000023002432
:1001400000250026103A01D378C1FBD8520700D30E
:1001500030C100D50B6070471FB51FBD10B510BD75
:1001600000F0A3F91146FFF7F7FF01F051FB00F093
:10017000BBF903B4FFF7F2FF03BC00F0C1F90000C4
:100180000748804707480047FEE7FEE7FEE7FEE72F
:10019000FEE7FEE704480549054A064B70470000A4
:1001A00089170008C10000087800002078060020A8
:1001B00078020020780200204343514330B55C1898
:1001C000010C130C0D4692B25D4380B251432C19C1
:1001D000054655430A0C09044D1962415843010C68
:1001E00000044019514130BDFEB5044610460D468D
:1001F000184373D0A6468C460020A41A01469D41A0
:1002000067D36646002701243D46B61A9D4102D3B6
:1002100013463A462124654676462F04360C3E4363
:100220002D0CB61A9D4104D3150C1B042B4312044C
:100230001034654676462F06360A3E432D0AB61A16
:100240009D4104D3150E1B022B4312020834654650
:1002500076462F0736093E432D09B61A9D4104D331
:10026000150F1B012B431201241D65467646AF076F
:10027000B6083E43AD08B61A9D4104D3950F9B00C6
:100280002B439200A41C65467646EF0776083E4352
:100290006D08B61A9D411AD392185B41641C16E092
:1002A0000018764665464941B71A9D410191009074
:1002B00009D36046B11A98418E4684460098019948
:1002C0000025401C6941DD0752082A435B08641E73
:1002D000E6D57246634603B0F0BDFFE720462843EB
:1002E00007D00020C0430146C046C04622462B46E8
:1002F000F1E700200146F7E701E004C0091F0429E7
:10030000FBD28B0701D50280801CC90700D0027088
:10031000704700290BD0C30702D00270401C491E51
:10032000022904D3830702D50280801C891EE3E7DB
:100330000022EEE70022DFE7002203098B422CD3E4
:10034000030A8B4211D300239C464EE003460B4325
:100350003CD4002243088B4231D303098B421CD387
:10036000030A8B4201D394463FE0C3098B4201D379
:10037000CB01C01A524183098B4201D38B01C01AB1
:10038000524143098B4201D34B01C01A5241030928
:100390008B4201D30B01C01A5241C3088B4201D3D7
:1003A000CB00C01A524183088B4201D38B00C01A84
:1003B000524143088B4201D34B00C01A5241411AAB
:1003C00000D201465241104670475DE0CA0F00D08E
:1003D0004942031000D3404253409C460022030987
:1003E0008B422DD3030A8B4212D38901FC2212BA0D
:1003F000030A8B420CD3890192118B4208D38901E5
:1004000092118B4204D389013AD0921100E08909FC
:10041000C3098B4201D3CB01C01A524183098B42DD
:1004200001D38B01C01A524143098B4201D34B01C6
:10043000C01A524103098B4201D30B01C01A524129
:10044000C3088B4201D3CB00C01A524183088B42B0
:1004500001D38B00C01A5241D9D243088B4201D339
:100460004B00C01A5241411A00D201465241104677
:1004700063465B1001D34042002B00D549427047D0
:1004800063465B1000D3404201B50549002802DCF9
:10049000491C084000E00846C046C04602BD00BFF7
:1004A000FFFFFF7F704770477047754600F024F8E4
:1004B000AE46050069465346C008C000854618B0E0
:1004C00020B5FFF767FE60BCB64600260027C0C512
:1004D000C0C5C0C5C0C5C0C5C0C5C0C5C0C5403DFC
:1004E000490849008D46704710B50446C046C046CD
:1004F0002046FFF73EFE10BD004870471000002068
:1005000001491820ABBEFEE726000200704781B00B
:10051000EFF3108072B60090FFE7FEE78CB00B900F
:100520000A910020099008900790FFE70A98006858
:100530000999C840002800D162E10A980068099A28
:1005400001219140084008900898002800D153E10B
:100550000A98406803210840012807D0FFE70A985D
:1005600040680321084002282CD1FFE70B988068DF
:10057000079009984000032181400798884307901D
:100580000A98C1680998400081400798084307907D
:1005900007980B9988600B9840680790099801218B
:1005A00081400798884307900A98406810210840C6
:1005B00001090998814007980843079007980B990B
:1005C0004860FFE70A98406803210840032816D0D6
:1005D000FFE70B98C068079009984000032181400D
:1005E0000798884307900A988168099840008140DD
:1005F00007980843079007980B99C860FFE70A9887
:10060000406803210840022820D1FFE70B98099990
:10061000C90889004018006A079009984007C00E71
:100620000F2181400798884307900A98016909982B
:100630004007C00E814007980843079007980B9920
:10064000099AD208920089180862FFE70B9800689F
:10065000079009984100032002468A400799914378
:1006600007910A994968014009984000814007981C
:100670000843079007980B9908600A9880798007CB
:10068000002800D1B7E0B249086801221043086091
:100690000998032188435B494058079009988007CF
:1006A000000F0F2181400798884307900B98052180
:1006B0000907884203D1FFE70020069038E00B9835
:1006C0005149884203D1FFE7012005902DE00B98A6
:1006D0004E49884203D1FFE70220049022E00B98A4
:1006E0004B49884203D1FFE70320039017E00B98A2
:1006F0004849884203D1FFE7042002900CE00B999F
:10070000454A0520062300939142019001D00098AC
:10071000019001980290FFE702980390FFE7039889
:100720000490FFE704980590FFE705980690FFE71F
:10073000069909988007000F8140079808430790A1
:1007400007980999032291432E4A8850334800683C
:10075000079008990798884307900A988079C006FF
:10076000002805D5FFE70899079808430790FFE799
:1007700007982A4908602A4800680790089907984E
:10078000884307900A9880798006002805D5FFE7FE
:100790000899079808430790FFE7079820490860E1
:1007A00020480068079008990798884307900A989E
:1007B00080798007002805D5FFE708990798084346
:1007C0000790FFE7079817490860174800680790E7
:1007D00008990798884307900A988079C0070028ED
:1007E00005D0FFE70899079808430790FFE70798A7
:1007F0000D490860FFE7FFE70998401C099095E65E
:100800000CB0704708000140000400500008005080
:10081000000C005000100050001C00500804014063
:100820000C040140040401400004014083B0029024
:1008300001A80180029949690091009A0188104637
:1008400008400004914340180299886103B0704742
:1008500083B0029001A801806846027000780028E9
:1008600005D0FFE701A800880299886104E001A88B
:10087000008802998862FFE703B070470548006866
:100880007047C0462B480278024908688018086003
:100890007047C0467400002080B582B001A90020D6
:1008A0000870EE490868402210430860032000F0F9
:1008B0000FF8002804D0FFE701A90120087002E02A
:1008C00000F03AF8FFE701A8007802B080BDC0460A
:1008D00080B584B00290E448006801901548017822
:1008E0007D20C000FFF728FD01460198FFF724FD99
:1008F00000F094FE002804D0FFE703A9012008704F
:1009000014E00298032809D8FFE702990022D04397
:1009100000F022F80298D549086003E003A90120FD
:10092000087003E003A900200870FFE703A800781F
:1009300004B080BD0400002005490868012210436E
:100940000860044908681207104308607047C046F1
:10095000341002403810024080B584B0034603A82A
:1009600003700291019200214056029900F00EFF9F
:1009700004B080BD80B586B004900391049800282F
:1009800004D1FFE705A90120087062E10398B3498B
:10099000096801221140884221D9FFE7AF49086860
:1009A00001229043039A10430860FFF767FF02900B
:1009B000FFE7AA48006801210840039988420DD04A
:1009C000FFE7FFF75BFF0299401AA549884204D36D
:1009D000FFE705A9032008703BE1EAE7FFE7049879
:1009E00000788007002809D5FFE7E9490868F02268
:1009F0009043049A926810430860FFE704980078D7
:100A0000C007002800D1BCE00498406802280ED13D
:100A1000FFE7E1480068012149040840400C002834
:100A200004D1FFE705A90120087012E134E0049821
:100A3000406803280ED1FFE7D74800680121490626
:100A40000840400E002804D1FFE705A901200870E6
:100A5000FFE020E00498406801280DD1FFE7CE4870
:100A60000068042108408008002804D1FFE705A998
:100A700001200870EDE00DE0C7480068012149023F
:100A80000840400A002804D1FFE705A901200870AA
:100A9000DFE0FFE7FFE7FFE7BD4908680322904377
:100AA000049A526810430860FFF7E8FE0290049829
:100AB0004068022816D1FFE7FFE7B54800680C211F
:100AC000084008280DD0FFE7FFF7D8FE0299401A2A
:100AD0006349884204D3FFE705A903200870B8E002
:100AE000EBE74DE004984068032816D1FFE7FFE7E5
:100AF000A74800680C2108400C280DD0FFE7FFF73D
:100B0000BDFE0299401A5649884204D3FFE705A961
:100B1000032008709DE0EBE731E00498406801286D
:100B200016D1FFE7FFE79A4800680C210840042827
:100B30000DD0FFE7FFF7A2FE0299401A484988420C
:100B400004D3FFE705A90320087082E0EBE715E076
:100B5000FFE78F4800680007800F00280DD0FFE7EF
:100B6000FFF78CFE0299401A3D49884204D3FFE703
:100B700005A9032008706CE0EBE7FFE7FFE7FFE75C
:100B8000FFE703983549096801221140884221D2C4
:100B9000FFE73249086801229043039A1043086036
:100BA000FFF76CFE0290FFE72C4800680121084027
:100BB000039988420DD0FFE7FFF760FE0299401AC3
:100BC0002749884204D3FFE705A90320087040E0C5
:100BD000EAE7FFE704980078400700280AD5FFE716
:100BE0006B490868072212029043049AD2681043A6
:100BF0000860FFE704980078000700280BD5FFE79E
:100C0000634908680722D2029043049A1269D2000D
:100C100010430860FFE700F02BF85D490968C9B28E
:100C20000A091049895CC8400F4908600F480068EC
:100C3000FFF74EFE014601A801700078002804D09D
:100C4000FFE7019805A9087003E005A900200870D6
:100C5000FFE705A8007806B080BDC046002002402E
:100C6000891300005C180008000000200800002024
:100C700080B58AB046480068099009980C21084060
:100C800003900C2875D80398810001A0405887462E
:100C9000710D0008730D0008730D0008730D000836
:100CA000C50C0008730D0008730D0008730D0008D3
:100CB000DF0C0008730D0008730D0008730D0008A9
:100CC000E50C000834480068C006002803D5FFE79B
:100CD0003348049002E031480490FFE755E0314882
:100CE000049052E009980F2189040840810C29489A
:100CF000405C08900998032189050840800D401C3C
:100D0000079023480068C00300280DD5FFE7089826
:100D1000244A002302931946FFF74EFA029B079AD2
:100D2000FFF762FA069020E01B480068C006002822
:100D30000DD5FFE708981A4A002301931946FFF7DB
:100D40003BFA019B079AFFF74FFA06900CE00898D0
:100D5000124A002300931946FFF72EFA009B079AC8
:100D6000FFF742FA0690FFE7FFE7069804900CE0D1
:100D7000FFE70D48006880B2400B05900598411CC4
:100D800001208840C0030490FFE704980AB080BDAA
:100D90000C1002406C180008001002400024F400FF
:100DA00000093D0000127A000410024010B58AB01C
:100DB00008900898002805D1FFE709A901200870CC
:100DC00000F015FCFD4801680C22114004910068F8
:100DD000012109040840039008980078C007002802
:100DE00000D18DE0049808280AD0FFE704980C2869
:100DF00019D1FFE7039801210904884213D1FFE7C5
:100E0000EF480068012149040840400C002809D03F
:100E1000FFE708984068002804D1FFE709A90120EE
:100E20000870E4E36BE0FFE70898406801210904DB
:100E3000884207D1FFE7E249086801221204104303
:100E4000086021E0089840680521090488420BD118
:100E5000FFE7DB490868012293041843086008682B
:100E60001204104308600EE0D549086801221304FB
:100E70009843086008681840029002980868920435
:100E800090430860FFE7FFE7FFE708984068002805
:100E90001AD0FFE7FFF7F2FC0790FFE7C8480068A9
:100EA000012149040840400C00280CD1FFE7FFF75E
:100EB000E5FC0799401A652804D3FFE709A9032038
:100EC000087094E3EAE719E0FFF7D8FC0790FFE722
:100ED000BB480068012149040840400C00280CD0A0
:100EE000FFE7FFF7CBFC0799401A652804D3FFE71B
:100EF00009A9032008707AE3EAE7FFE7FFE7FFE7C5
:100F0000089800788007002800D4A8E00898C068F6
:100F1000069006A800788006002809D5FFE7A84AB1
:100F20001068202108431060069888430690FFE768
:100F30000498042808D0FFE704980C2841D1FFE763
:100F4000039800283DD1FFE79D4800680421084030
:100F50008008002808D0FFE70698002804D1FFE7A2
:100F600009A90120087042E3964908681F2212026D
:100F70009043089A12691202104308609049086869
:100F800009229043069A10430860FFE7FFF770FEBE
:100F90008A490968C9B20A098B49895CC8408B49EA
:100FA00008608B480068FFF793FC014605A80170B4
:100FB0000078002804D0FFE7059809A9087016E317
:100FC0004CE0069800282AD0FFE77D4908680922EE
:100FD0009043069A10430860FFF750FC0790FFE724
:100FE0007748006804210840800800280CD1FFE7FA
:100FF000FFF744FC0799401A032804D3FFE709A927
:1010000003200870F3E2EBE76E4908681F22120222
:101010009043089A12691202104308601DE0684963
:101020000868012290430860FFF728FC0790FFE75B
:101030006348006804210840800800280CD0FFE7BE
:10104000FFF71CFC0799401A032804D3FFE709A9FE
:1010500003200870CBE2EBE7FFE7FFE7FFE7089824
:101060000078C006002800D4A1E00498002845D1EB
:10107000FFE753480068012149020840400A002860
:1010800009D0FFE70898C069002804D1FFE709A943
:1010900001200870ABE24B490868072252039043D5
:1010A000089A526A104308600868FF2212069043AB
:1010B000089A126A1206801808600898406A400B65
:1010C000411C01208840C0033C490968C9B20A0993
:1010D0003D49895CC8403D4908603D480068FFF7CC
:1010E000F7FB014605A801700078002804D0FFE74F
:1010F000059809A908707AE2FFE757E00898C069E7
:10110000002832D0FFE72E4908680122120210435E
:101110000860FFF7B3FB0790FFE72948006801214B
:1011200049020840400A00280CD1FFE7FFF7A6FB60
:101130000799401A032804D3FFE709A90320087080
:1011400055E2EAE71F490868072252039043089ACC
:10115000526A104308600868FF2212069043089AFA
:10116000126A1206801808601FE0154908680122FB
:10117000120290430860FFF781FB0790FFE71048D9
:101180000068012149020840400A00280CD0FFE70E
:10119000FFF774FB0799401A032804D3FFE709A956
:1011A0000320087023E2EAE7FFE7FFE7FFE708987C
:1011B0000078000700284FD50CE0C0460C10024014
:1011C00000100240041002405C18000800000020DB
:1011D000080000200898406900281ED0FFE7FD495C
:1011E0000868012210430860FFF748FB0790FFE7FB
:1011F000F848006802210840400800280CD1FFE7A9
:10120000FFF73CFB0799401A032804D3FFE709A91D
:1012100003200870EBE1EBE71DE0F94908680122C3
:1012200090430860FFF72AFB0790FFE7F448006847
:1012300002210840400800280CD0FFE7FFF71EFB02
:101240000799401A032804D3FFE709A9032008706F
:10125000CDE1EBE7FFE7FFE70898007840070028BB
:1012600000D4BBE001A900200870E6480068C00077
:10127000002809D4FFE7E34A116801200307194356
:10128000116001A90870FFE7DF480068C005002869
:101290001DD4FFE7DC4908680122120210430860F0
:1012A000FFF7ECFA0790FFE7D7480068C005002871
:1012B0000CD4FFE7FFF7E2FA0799401A652804D338
:1012C000FFE709A90320087091E1EDE7FFE7FFE7D9
:1012D0000898806801210902884207D1FFE7C849C0
:1012E000086801221202104308602EE00898806806
:1012F00000280BD1FFE7C249086801221302984376
:10130000086008689202904308601DE008988068B1
:101310000521090288420BD1FFE7B949086801227B
:1013200093021843086008681202104308600AE03C
:10133000B3490868012213029843086008689202C2
:1013400090430860FFE7FFE7FFE7FFE70898806842
:1013500000281BD0FFE7FFF791FA0790FFE7A848A6
:101360000068012149020840400A00280DD1FFE72A
:10137000FFF784FA0799401AA449884204D3FFE78B
:1013800009A90320087032E1E9E71AE0FFF776FACD
:101390000790FFE79A480068012149020840400A87
:1013A00000280DD0FFE7FFF769FA0799401A97491F
:1013B000884204D3FFE709A90320087017E1E9E791
:1013C000FFE701A80078012807D1FFE78D490868E9
:1013D0000122120790430860FFE7FFE708980078B2
:1013E0008006002854D5FFE708988069002829D096
:1013F000FFE7FFE786490868012210430860864935
:101400000868104308608349086852031043086065
:10141000FFE7FFF733FA0790FFE77D4800680221F6
:101420000840400800280CD1FFE7FFF727FA07998A
:10143000401A032804D3FFE709A903200870D6E067
:10144000EBE724E0FFE77249086801229043086057
:1014500070490868520390430860FFE7FFF70EFAEF
:101460000790FFE76A48006802210840400800280A
:101470000CD0FFE7FFF702FA0799401A032804D3BC
:10148000FFE709A903200870B1E0EBE7FFE7FFE7FA
:101490000898806A002800D1A5E004980C2872D032
:1014A000FFE70898806A02284CD1FFE75349086893
:1014B0000122120690430860FFF7E0F90790FFE76A
:1014C0004E480068012149060840400E00280CD013
:1014D000FFE7FFF7D3F90799401A032804D3FFE782
:1014E00009A90320087082E0EAE743490868FD2261
:1014F00012049043089BDA6A1C6B22435B6B1A430D
:10150000104308603D490868012212061043086034
:10151000FFF7B4F90790FFE7384800680121490652
:101520000840400E00280CD1FFE7FFF7A7F9079904
:10153000401A032804D3FFE709A90320087056E0E6
:10154000EAE71FE02D49086801221206904308606F
:10155000FFF794F90790FFE7284800680121490642
:101560000840400E00280CD0FFE7FFF787F90799E5
:10157000401A032804D3FFE709A90320087036E0C6
:10158000EAE7FFE72EE00898806A012804D1FFE728
:1015900009A9012008702AE0174800680390039801
:1015A0000121090408400899C96A884214D1FFE75B
:1015B00003980F21890408400899096B88420BD1D0
:1015C000FFE703980321890508400899496B884281
:1015D00006D001E05010024009A90120087006E081
:1015E000FFE7FFE7FFE709A900200870FFE709A868
:1015F00000780AB010BDC0460C1002400010024036
:101600005010024038100240007000408913000062
:1016100008100240200001403410024080B582B022
:101620000190019800F044F802B080BDFFE7FEE7AA
:1016300080B58AB000200990089007900690059028
:10164000FFE71848026802210A4302600068084068
:1016500004900498FFE77F48029040210022019205
:10166000FFF7F6F80298012200925102FFF7F0F816
:10167000009A0199029809239B010593069207910C
:10168000089105A90391FEF749FF019A0298039971
:101690000323DB01059306920792FEF73FFF0AB092
:1016A00080BDC0462C100240FFE7FEE77047704740
:1016B00080B584B002900298401E000E002803D02E
:1016C000FFE70120039011E00298401E09490860DD
:1016D00000200190C043032100F058F8019806490A
:1016E0000860064A072111600390FFE7039804B0E1
:1016F00080BDC04614E000E018E000E010E000E02B
:1017000080B5FFF7BFF854490868401C086080BDE9
:10171000B0B594B006A800903821FEF70BFE0098F3
:10172000002105910491039102910191154C2368C8
:101730000322D20293430122D5025B1923601023B6
:1017400006930D920E91052252030F921091FFF70E
:101750002DFB002803D0FFE7FEF7D9FEFFE70F209F
:1017600001900021029103910491059101A8FFF7D6
:1017700001F9002803D0FFE7FEF7C9FEFFE714B028
:10178000B0BDC046007000407047000070B582B028
:10179000024601A80270009100214056002816D48C
:1017A000FFE7002401A908570322D3431840174A32
:1017B000805809578C07E50EFF24AC40A043009CDD
:1017C000A401E4B2AC402043194088501AE001A9BA
:1017D00008780F24204008380322D34318400A4ACF
:1017E0008058002549578D07EE0EFF25B540A843C8
:1017F000009DAD01EDB2B5402843214008391940A4
:101800008850FFE702B070BD1CED00E000E400E08E
:1018100080B582B0002000900190FFF73DF8FFF7FF
:1018200077FFFFF705FF009A0A484021FFF710F8FD
:10183000FFE7094800687D21C900884209D1FFE718
:10184000012041020348FEF7F1FF03490020086030
:10185000FFE7EEE7000400507000002000000000E9
:10186000000000000102030406070809030406083B
:101870000C1018203000000098180008000000200C
:10188000100000001C010008A8180008100000202B
:10189000680600003C010008000020000100000074
:0818A00004000000000000003C
:04000005080000C12E
:00000001FF
