:020000040800F2
:100000008006002081010008B5190008F1180008D9
:1000100000000000000000000000000000000000E0
:10002000000000000000000000000000BB190008F4
:100030000000000000000000B91900080D1A0008B7
:100040009301000893010008930100089301000840
:100050009301000893010008930100081B070008A2
:100060009301000893010008930100089301000820
:100070009301000893010008930100089301000810
:10008000930100089301000893010008000000009C
:1000900093010008930100089301000893010008F0
:1000A00093010008930100089301000893010008E0
:1000B00093010008930100089301000893010008D0
:1000C00000F002F800F04CF812A030C808382418EC
:1000D0002D18AC4201D100F043F80FCCA246AB463C
:1000E0000CA730CF2D1B083F3F197C427F1E544484
:1000F0002D090426F441641EAC4201D300F030F80F
:100100000126334200D0FB1A3343984754465D46DC
:10011000DFE70000D81B0000F81B0000103A02D3F4
:1001200078C878C1FAD8520701D330C830C101D598
:1001300004680C6070470000704700000023002432
:1001400000250026103A01D378C1FBD8520700D30E
:1001500030C100D50B6070471FB51FBD10B510BD75
:1001600000F0A9FA1146FFF7F7FF01F0EDFC00F0EF
:10017000C1FA03B4FFF7F2FF03BC00F0C7FA0000B6
:100180000748804707480047FEE7FEE7FEE7FEE72F
:10019000FEE7FEE704480549054A064B70470000A4
:1001A000951A0008C1000008800000208006002089
:1001B00080020020800200204343514330B55C1888
:1001C000010C130C0D4692B25D4380B251432C19C1
:1001D000054655430A0C09044D1962415843010C68
:1001E00000044019514130BDFEB5044610460D468D
:1001F000184373D0A6468C460020A41A01469D41A0
:1002000067D36646002701243D46B61A9D4102D3B6
:1002100013463A462124654676462F04360C3E4363
:100220002D0CB61A9D4104D3150C1B042B4312044C
:100230001034654676462F06360A3E432D0AB61A16
:100240009D4104D3150E1B022B4312020834654650
:1002500076462F0736093E432D09B61A9D4104D331
:10026000150F1B012B431201241D65467646AF076F
:10027000B6083E43AD08B61A9D4104D3950F9B00C6
:100280002B439200A41C65467646EF0776083E4352
:100290006D08B61A9D411AD392185B41641C16E092
:1002A0000018764665464941B71A9D410191009074
:1002B00009D36046B11A98418E4684460098019948
:1002C0000025401C6941DD0752082A435B08641E73
:1002D000E6D57246634603B0F0BDFFE720462843EB
:1002E00007D00020C0430146C046C04622462B46E8
:1002F000F1E700200146F7E701E004C0091F0429E7
:10030000FBD28B0701D50280801CC90700D0027088
:10031000704700290BD0C30702D00270401C491E51
:10032000022904D3830702D50280801C891EE3E7DB
:100330000022EEE70022DFE7002203098B422CD3E4
:10034000030A8B4211D300239C464EE003460B4325
:100350003CD4002243088B4231D303098B421CD387
:10036000030A8B4201D394463FE0C3098B4201D379
:10037000CB01C01A524183098B4201D38B01C01AB1
:10038000524143098B4201D34B01C01A5241030928
:100390008B4201D30B01C01A5241C3088B4201D3D7
:1003A000CB00C01A524183088B4201D38B00C01A84
:1003B000524143088B4201D34B00C01A5241411AAB
:1003C00000D201465241104670475DE0CA0F00D08E
:1003D0004942031000D3404253409C460022030987
:1003E0008B422DD3030A8B4212D38901FC2212BA0D
:1003F000030A8B420CD3890192118B4208D38901E5
:1004000092118B4204D389013AD0921100E08909FC
:10041000C3098B4201D3CB01C01A524183098B42DD
:1004200001D38B01C01A524143098B4201D34B01C6
:10043000C01A524103098B4201D30B01C01A524129
:10044000C3088B4201D3CB00C01A524183088B42B0
:1004500001D38B00C01A5241D9D243088B4201D339
:100460004B00C01A5241411A00D201465241104677
:1004700063465B1001D34042002B00D549427047D0
:1004800063465B1000D3404201B50549002802DCF9
:10049000491C084000E00846C046C04602BD00BFF7
:1004A000FFFFFF7F7047704770470000F0B5FF25E2
:1004B0002D04C609C209FF2704462E400137CB0987
:1004C0003E4348402A402B400746002A6BD0002B71
:1004D00069D0AA4267D0AB4265D0002800DA324624
:1004E0000125ED0529432C4309022002090AD21AED
:1004F0004B0C7F24E31A434C000A7C44E35C7D24CC
:100500002404121914145B00A218884201D3521C4F
:1005100000E0400049420C465C4324115C43DB018F
:100520006415E318040A5C43C502200D0C464443DD
:100530006419250A5D432303EC0C0D466543000353
:100540000019EB184C42A34201D35B18401CD405A0
:100550002018002B07D05B00C91804D3401C0029C9
:1005600001D1400840003F2189048A4209D3002A72
:1005700008DC1106090F04D0032149074018C00FF9
:10058000C007F0BD01224100120689187F225206E1
:100590009142F6D205214907C84201D59010F0BD1D
:1005A000FF20C005F0BD002F00DA32461648AA42EF
:1005B00007D2AB4205D21902090E17D0F80FC007B7
:1005C000F0BDFF2563002D06AB42F9D84900A942D2
:1005D000F6D8AB4201D1A942F2D0A94201D1002103
:1005E00001E061004908D0050843F0BD1102090E81
:1005F000FBD0FF200243D005F0BD0A46014610465D
:1006000054E70000921700000000C07F10B50146BB
:100610009E240002CA15A307002A02D01843002A0C
:1006200004DBA21A002A0CDDD04010BD1206120E07
:1006300001D140004008A21A03D4D0404042002813
:10064000F3DDFF2248001206904201D9002010BDC0
:10065000C817C043584010BD1F22030C02D10F22FF
:1006600000041CD0030E01D10002083A030F01D18F
:100670000001121F830F01D18000921E002801DBB0
:100680004000521ED20551180212511819229040F2
:1006900004D3491C002801D1490849000846704785
:1006A000C10FC90700D04042012292071143D3E78E
:1006B00001218907D0E7754600F024F8AE46050011
:1006C00069465346C008C000854618B020B5FFF7FC
:1006D00061FD60BCB64600260027C0C5C0C5C0C5C8
:1006E000C0C5C0C5C0C5C0C5C0C5403D490849005A
:1006F0008D46704710B50446C046C0462046FFF7F9
:1007000038FD10BD00487047100000200149182036
:10071000ABBEFEE726000200704780B5202000F047
:1007200023F880BD81B0EFF3108072B60090FFE730
:10073000FEE7000081B0014668460180008820285D
:100740000ED1FFE707480078012804D1FFE70549EB
:100750000020087003E0034901200870FFE7FFE76D
:1007600001B070470000002080B582B001A9088068
:10077000074800680988084208D0FFE701A80188F7
:10078000034A11600088FFF7D5FFFFE702B080BD84
:10079000140401408CB00B900A910020099008903D
:1007A0000790FFE70A9800680999C840002800D11F
:1007B00062E10A980068099A012191400840089076
:1007C0000898002800D153E10A98406803210840A6
:1007D000012807D0FFE70A98406803210840022853
:1007E0002CD1FFE70B9880680790099840000321FF
:1007F00081400798884307900A98C168099840008B
:10080000814007980843079007980B9988600B98D8
:100810004068079009980121814007988843079014
:100820000A984068102108400109099881400798FA
:100830000843079007980B994860FFE70A984068BB
:1008400003210840032816D0FFE70B98C0680790E3
:1008500009984000032181400798884307900A982F
:1008600081680998400081400798084307900798DD
:100870000B99C860FFE70A984068032108400228E6
:1008800020D1FFE70B980999C90889004018006A30
:10089000079009984007C00E0F21814007988843B0
:1008A00007900A98016909984007C00E814007988F
:1008B0000843079007980B99099AD2089200891863
:1008C0000862FFE70B980068079009984100032031
:1008D00002468A400799914307910A994968014065
:1008E00009984000814007980843079007980B99A2
:1008F00008600A9880798007002800D1B7E0BF49D6
:1009000008680122104308600998032188435B4965
:100910004058079009988007000F0F2181400798E1
:10092000884307900B9805210907884203D1FFE708
:100930000020069038E00B985149884203D1FFE728
:10094000012005902DE00B984E49884203D1FFE726
:100950000220049022E00B984B49884203D1FFE724
:100960000320039017E00B984849884203D1FFE722
:10097000042002900CE00B99454A052006230093C1
:100980009142019001D00098019001980290FFE7F8
:1009900002980390FFE703980490FFE704980590FE
:1009A000FFE705980690FFE7069909988007000F72
:1009B00081400798084307900798099903229143BB
:1009C0002E4A885033480068079008990798884352
:1009D00007900A988079C006002805D5FFE7089996
:1009E000079808430790FFE707982A4908602A48B4
:1009F0000068079008990798884307900A988079BB
:100A00008006002805D5FFE7089907980843079056
:100A1000FFE7079820490860204800680790089978
:100A20000798884307900A9880798007002805D5A1
:100A3000FFE70899079808430790FFE707981749C9
:100A4000086017480068079008990798884307903E
:100A50000A988079C007002805D0FFE70899079811
:100A600008430790FFE707980D490860FFE7FFE795
:100A70000998401C099095E60CB0704708000140A9
:100A80000004005000080050000C005000100050FE
:100A9000001C0050080401400C0401400404014003
:100AA0000004014084B0009101460098039102A91E
:100AB0000880039800690988084204D0FFE701A96B
:100AC0000120087003E001A900200870FFE701A8D9
:100AD000007804B0704783B0029001A801800299A9
:100AE00049690091009A018810460840000491432A
:100AF00040180299886103B0704783B0029001A842
:100B00000180684602700078002805D0FFE701A840
:100B100000880299886104E001A80088029988622F
:100B2000FFE703B070470000054800687047C04603
:100B30002B48027802490868801808607047C04650
:100B40007800002080B582B001A900200870F44927
:100B50000868402210430860032000F00FF80028C6
:100B600004D0FFE701A90120087002E000F03AF884
:100B7000FFE701A8007802B080BDC04680B584B010
:100B80000290EA4800680190154801787D20C00075
:100B9000FFF7D2FB01460198FFF7CEFB00F0A0FE65
:100BA000002804D0FFE703A90120087014E0029890
:100BB000032809D8FFE702990022D04300F02DF85E
:100BC0000298DB49086003E003A90120087003E0F4
:100BD00003A900200870FFE703A8007804B080BDD7
:100BE00008000020054908680122104308600449F4
:100BF00008681207104308607047C046341002406E
:100C00003810024080B582B0014601A80170002171
:100C1000405600F041FF02B080BD80B584B003466D
:100C200003A803700291019200214056029900F03E
:100C300049FF04B080BD000080B586B004900391E8
:100C40000498002804D1FFE705A90120087062E19B
:100C50000398B349096801221140884221D9FFE76E
:100C6000AF49086801229043039A10430860FFF7D8
:100C70005BFF0290FFE7AA48006801210840039942
:100C800088420DD0FFE7FFF74FFF0299401AA549B0
:100C9000884204D3FFE705A9032008703BE1EAE797
:100CA000FFE7049800788007002809D5FFE7E949A5
:100CB0000868F0229043049A926810430860FFE7A6
:100CC00004980078C007002800D1BCE00498406870
:100CD00002280ED1FFE7E1480068012149040840DD
:100CE000400C002804D1FFE705A90120087012E19B
:100CF00034E00498406803280ED1FFE7D748006825
:100D0000012149060840400E002804D1FFE705A94B
:100D100001200870FFE020E00498406801280DD110
:100D2000FFE7CE480068042108408008002804D16D
:100D3000FFE705A901200870EDE00DE0C748006855
:100D4000012149020840400A002804D1FFE705A913
:100D500001200870DFE0FFE7FFE7FFE7BD49086813
:100D600003229043049A526810430860FFF7DCFEA8
:100D7000029004984068022816D1FFE7FFE7B548C3
:100D800000680C21084008280DD0FFE7FFF7CCFED3
:100D90000299401A6349884204D3FFE705A903205A
:100DA0000870B8E0EBE74DE004984068032816D1DE
:100DB000FFE7FFE7A74800680C2108400C280DD08A
:100DC000FFE7FFF7B1FE0299401A5649884204D363
:100DD000FFE705A9032008709DE0EBE731E00498E8
:100DE0004068012816D1FFE7FFE79A4800680C2108
:100DF000084004280DD0FFE7FFF796FE0299401A3D
:100E00004849884204D3FFE705A90320087082E01F
:100E1000EBE715E0FFE78F4800680007800F002828
:100E20000DD0FFE7FFF780FE0299401A3D49884246
:100E300004D3FFE705A9032008706CE0EBE7FFE7A8
:100E4000FFE7FFE7FFE703983549096801221140F2
:100E5000884221D2FFE73249086801229043039A71
:100E600010430860FFF760FE0290FFE72C4800681F
:100E700001210840039988420DD0FFE7FFF754FE97
:100E80000299401A2749884204D3FFE705A90320A5
:100E9000087040E0EAE7FFE7049800784007002880
:100EA0000AD5FFE76B490868072212029043049AAB
:100EB000D26810430860FFE7049800780007002814
:100EC0000BD5FFE7634908680722D2029043049AD2
:100ED0001269D20010430860FFE700F02BF85D496B
:100EE0000968C9B20A091049895CC8400F490860FD
:100EF0000F480068FFF742FE014601A80170007824
:100F0000002804D0FFE7019805A9087003E005A9AF
:100F100000200870FFE705A8007806B080BDC04635
:100F20000020024089130000D01C000804000020AB
:100F30000C00002080B58AB04648006809900998E6
:100F40000C21084003900C2875D80398810001A05B
:100F50004058874635100008371000083710000841
:100F600037100008890F00083710000837100008F4
:100F700037100008A30F00083710000837100008CA
:100F800037100008A90F000834480068C006002880
:100F900003D5FFE73348049002E031480490FFE7AF
:100FA00055E03148049052E009980F218904084027
:100FB000810C2948405C0890099803218905084064
:100FC000800D401C079023480068C00300280DD501
:100FD000FFE70898244A002302931946FFF7ECF82C
:100FE000029B079AFFF700F9069020E01B48006873
:100FF000C00600280DD5FFE708981A4A0023019380
:101000001946FFF7D9F8019B079AFFF7EDF806900C
:101010000CE00898124A002300931946FFF7CCF819
:10102000009B079AFFF7E0F80690FFE7FFE70698B6
:1010300004900CE0FFE70D48006880B2400B05907B
:101040000598411C01208840C0030490FFE70498E4
:101050000AB080BD0C100240E01C000800100240E5
:101060000024F40000093D0000127A000410024040
:1010700010B58AB008900898002805D1FFE709A9A3
:101080000120087000F015FCFD4801680C22114099
:101090000491006801210904084003900898007831
:1010A000C007002800D18DE0049808280AD0FFE787
:1010B00004980C2819D1FFE70398012109048842FC
:1010C00013D1FFE7EF480068012149040840400CB4
:1010D000002809D0FFE708984068002804D1FFE7FE
:1010E00009A901200870E4E36BE0FFE70898406875
:1010F00001210904884207D1FFE7E249086801227B
:1011000012041043086021E0089840680521090492
:1011100088420BD1FFE7DB4908680122930418439A
:10112000086008681204104308600EE0D54908689A
:10113000012213049843086008681840029002983E
:101140000868920490430860FFE7FFE7FFE708980C
:10115000406800281AD0FFE7FFF7E6FC0790FFE79A
:10116000C8480068012149040840400C00280CD1FF
:10117000FFE7FFF7D9FC0799401A652804D3FFE77A
:1011800009A90320087094E3EAE719E0FFF7CCFC13
:101190000790FFE7BB480068012149040840400C64
:1011A00000280CD0FFE7FFF7BFFC0799401A65281D
:1011B00004D3FFE709A9032008707AE3EAE7FFE711
:1011C000FFE7FFE7089800788007002800D4A8E030
:1011D0000898C068069006A800788006002809D5FF
:1011E000FFE7A84A1068202108431060069888434A
:1011F0000690FFE70498042808D0FFE704980C281D
:1012000041D1FFE7039800283DD1FFE79D480068E2
:10121000042108408008002808D0FFE7069800282D
:1012200004D1FFE709A90120087042E39649086844
:101230001F2212029043089A12691202104308609A
:101240009049086809229043069A10430860FFE716
:10125000FFF770FE8A490968C9B20A098B49895C9F
:10126000C8408B4908608B480068FFF787FC01463F
:1012700005A801700078002804D0FFE7059809A9A7
:10128000087016E34CE0069800282AD0FFE77D4955
:10129000086809229043069A10430860FFF744FC4F
:1012A0000790FFE77748006804210840800800287D
:1012B0000CD1FFE7FFF738FC0799401A032804D345
:1012C000FFE709A903200870F3E2EBE76E4908681D
:1012D0001F2212029043089A1269120210430860FA
:1012E0001DE068490868012290430860FFF71CFC74
:1012F0000790FFE763480068042108408008002841
:101300000CD0FFE7FFF710FC0799401A032804D31D
:10131000FFE709A903200870CBE2EBE7FFE7FFE74F
:10132000FFE708980078C006002800D4A1E00498E0
:10133000002845D1FFE753480068012149020840D1
:10134000400A002809D0FFE70898C069002804D1A6
:10135000FFE709A901200870ABE24B4908680722A2
:1013600052039043089A526A104308600868FF22AB
:1013700012069043089A126A1206801808600898AC
:10138000406A400B411C01208840C0033C49096869
:10139000C9B20A093D49895CC8403D4908603D48D9
:1013A0000068FFF7EBFB014605A8017000780028F4
:1013B00004D0FFE7059809A908707AE2FFE757E033
:1013C0000898C069002832D0FFE72E49086801223A
:1013D000120210430860FFF7A7FB0790FFE72948B8
:1013E0000068012149020840400A00280CD1FFE7AB
:1013F000FFF79AFB0799401A032804D3FFE709A9CE
:101400000320087055E2EAE71F49086807225203E3
:101410009043089A526A104308600868FF22120637
:101420009043089A126A1206801808601FE0154956
:1014300008680122120290430860FFF775FB0790CD
:10144000FFE710480068012149020840400A0028CF
:101450000CD0FFE7FFF768FB0799401A032804D375
:10146000FFE709A90320087023E2EAE7FFE7FFE7A7
:10147000FFE708980078000700284FD50CE0C04629
:101480000C1002400010024004100240D01C000862
:10149000040000200C0000200898406900281ED09D
:1014A000FFE7FD490868012210430860FFF73CFB95
:1014B0000790FFE7F848006802210840400800282C
:1014C0000CD1FFE7FFF730FB0799401A032804D33C
:1014D000FFE709A903200870EBE1EBE71DE0F949FC
:1014E0000868012290430860FFF71EFB0790FFE7A2
:1014F000F448006802210840400800280CD0FFE7AB
:10150000FFF712FB0799401A032804D3FFE709A944
:1015100003200870CDE1EBE7FFE7FFE708980078CC
:101520004007002800D4BBE001A900200870E6486D
:101530000068C000002809D4FFE7E34A11680120D1
:1015400003071943116001A90870FFE7DF4800682D
:10155000C00500281DD4FFE7DC49086801221202FB
:1015600010430860FFF7E0FA0790FFE7D7480068EC
:10157000C00500280CD4FFE7FFF7D6FA0799401AF8
:10158000652804D3FFE709A90320087091E1EDE77E
:10159000FFE7FFE70898806801210902884207D128
:1015A000FFE7C849086801221202104308602EE0D4
:1015B0000898806800280BD1FFE7C249086801221B
:1015C00013029843086008689202904308601DE087
:1015D000089880680521090288420BD1FFE7B949C4
:1015E0000868012293021843086008681202104339
:1015F00008600AE0B34908680122130298430860B2
:101600000868920290430860FFE7FFE7FFE7FFE703
:101610000898806800281BD0FFE7FFF785FA07903D
:10162000FFE7A8480068012149020840400A002855
:101630000DD1FFE7FFF778FA0799401AA4498842CD
:1016400004D3FFE709A90320087032E1E9E71AE0B3
:10165000FFF76AFA0790FFE79A48006801214902FC
:101660000840400A00280DD0FFE7FFF75DFA079910
:10167000401A9749884204D3FFE709A9032008705C
:1016800017E1E9E7FFE701A80078012807D1FFE7A4
:101690008D4908680122120790430860FFE7FFE7C1
:1016A000089800788006002854D5FFE708988069DC
:1016B000002829D0FFE7FFE7864908680122104388
:1016C0000860864908681043086083490868520327
:1016D00010430860FFE7FFF727FA0790FFE77D4810
:1016E000006802210840400800280CD1FFE7FFF7FE
:1016F0001BFA0799401A032804D3FFE709A903201E
:101700000870D6E0EBE724E0FFE7724908680122A1
:101710009043086070490868520390430860FFE7EF
:10172000FFF702FA0790FFE76A48006802210840C5
:10173000400800280CD0FFE7FFF7F6F90799401A98
:10174000032804D3FFE709A903200870B1E0EBE701
:10175000FFE7FFE70898806A002800D1A5E0049819
:101760000C2872D0FFE70898806A02284CD1FFE766
:10177000534908680122120690430860FFF7D4F924
:101780000790FFE74E480068012149060840400ED7
:1017900000280CD0FFE7FFF7C7F90799401A032884
:1017A00004D3FFE709A90320087082E0EAE7434970
:1017B0000868FD2212049043089BDA6A1C6B2243DE
:1017C0005B6B1A43104308603D490868012212060A
:1017D00010430860FFF7A8F90790FFE73848006852
:1017E000012149060840400E00280CD1FFE7FFF711
:1017F0009BF90799401A032804D3FFE709A903209E
:10180000087056E0EAE71FE02D4908680122120639
:1018100090430860FFF788F90790FFE728480068C1
:10182000012149060840400E00280CD0FFE7FFF7D1
:101830007BF90799401A032804D3FFE709A903207D
:10184000087036E0EAE7FFE72EE00898806A012892
:1018500004D1FFE709A9012008702AE017480068B1
:10186000039003980121090408400899C96A884235
:1018700014D1FFE703980F21890408400899096BE8
:1018800088420BD1FFE70398032189050840089996
:10189000496B884206D001E05010024009A901209E
:1018A000087006E0FFE7FFE7FFE709A900200870DE
:1018B000FFE709A800780AB010BDC0460C1002402E
:1018C00000100240501002403810024000700040EA
:1018D000891300000810024020000140341002402B
:1018E00080B582B00190019800F068F802B080BD28
:1018F000FFE7FEE710B58CB000200B900A9009902E
:1019000008900790FFE72748026802210A43026017
:101910000068084006900698FFE7DB4802902249DD
:1019200001220192FFF7E9F8029881218901002242
:101930000492FFF7E2F8019A029804991B4B07936F
:10194000089209910A9107A90391FEF723FF019BD1
:1019500002980399049A5C030794089309930A92E6
:10196000FEF718FF02980399049A114B0793089207
:101970000992FEF70FFF019A02980399202307931B
:1019800011231B0408930992FEF704FF049A072011
:1019900005901146FFF741F90598FFF733F90CB0B0
:1019A00010BDC0462C10024002420000424200001E
:1019B00080810000FFE7FEE77047704780B584B084
:1019C00002900298401E000E002803D0FFE701207D
:1019D000039011E00298401E094908600020019020
:1019E000C043032100F06EF8019806490860064ADA
:1019F000072111600390FFE7039804B080BDC04643
:101A000014E000E018E000E010E000E080B5FFF72F
:101A10008FF869490868401C086080BDB0B594B073
:101A200006A800903821FEF785FC0098002105915A
:101A30000491039102910191154C23680322D20273
:101A400093430122D5025B192360102306930D9264
:101A50000E91052252030F921091FFF709FB002807
:101A600003D0FFE7FEF75EFEFFE70F2001900021A5
:101A7000029103910491059101A8FFF7DDF8002878
:101A800003D0FFE7FEF74EFEFFE714B0B0BDC0463F
:101A9000007000407047000081B001466846017048
:101AA00000214056002809D4FFE7684601781F202E
:101AB00001400120884002490860FFE701B07047FB
:101AC00000E100E070B582B0024601A8027000910A
:101AD00000214056002816D4FFE7002401A908572A
:101AE0000322D3431840174A805809578C07E50E44
:101AF000FF24AC40A043009CA401E4B2AC402043CE
:101B0000194088501AE001A908780F2420400838AD
:101B10000322D34318400A4A8058002549578D07AD
:101B2000EE0EFF25B540A843009DAD01EDB2B540D6
:101B300028432140083919408850FFE702B070BDA2
:101B40001CED00E000E400E080B584B000200190CE
:101B50000390FEF7F7FFFFF761FFFFF7CBFE019A57
:101B6000494802904021FEF7C8FF02980221012255
:101B7000FEF7C3FFFFE7104800687D218900884217
:101B800019D1FFE700F01EF88121C905FEF78EFC90
:101B9000FEF73CFD0949088009480078002806D175
:101BA000FFE7012041023848FEF795FFFFE70249B1
:101BB00000200860FFE7DEE77000002076000020CC
:101BC0000000002010B58AB0012041032E480022F9
:101BD0000492FEF792FF04980590FFE705981028FD
:101BE0001BDCFFE70122019291030291264803903A
:101BF000FEF783FF01990398C903FEF753FF02998B
:101C000002460398059C06AB1A550022FEF775FFA5
:101C1000FFE70598401C0590E0E7012251031A48B0
:101C2000FEF76BFF06A80090C17889020279520284
:101C300089184279120289188279D2018918C279E9
:101C400092018918027A52018918427A1201891880
:101C5000827AD2008918C27A92008918027B5200D7
:101C60008918427B8918094A11808078012804D19B
:101C7000FFE7064900200880FFE704480088FEF7D8
:101C800017FD0AB010BDC0460004005074000020CB
:101C90008182838485868788898B8C8D8E8F9192B3
:101CA00093959697999A9C9D9FA0A2A3A5A7A8AA51
:101CB000ACAEB0B2B3B5B7B9BCBEC0C2C5C7C9CC73
:101CC000CED1D4D7D9DCDFE2E6E9ECF0F3F7FAFEC7
:101CD00000000000000000000102030406070809DC
:101CE000030406080C10182030000000101D000826
:101CF00000000020100000001C010008201D00084A
:101D000010000020700600003C01000800000000E8
:101D1000010000000000200001000000040000009D
:04000005080000C12E
:00000001FF
